:100000000C9434000C9451000C9451000C94510049
:100010000C9451000C9451000C9451000C948F01DD
:100020000C9451000C9451000C9451000C9451000C
:100030000C9451000C9451000C949E010C945100AE
:100040000C9451000C9451000C9451000C945100EC
:100050000C9451000C9451000C9451000C94CC0061
:100060000C9451000C94510011241FBECFEFD8E026
:10007000DEBFCDBF11E0A0E0B1E0E2E3F4E002C0FA
:1000800005900D92A430B107D9F711E0A4E0B1E0DA
:1000900001C01D92A731B107E1F70E9453000C94F3
:1000A00017020C94000014B815B887E084B9279A99
:1000B000269A2E982F9817B818B888E087B9F89420
:1000C00083E080937F008BE080BF84B5826084BD35
:1000D00085B5826085BD84E687BD80916E008260B3
:1000E00080936E0080918100856080938100809173
:1000F000B00082608093B00082E08093700088EC52
:100100008093B3008091B10085608093B100289AFC
:10011000299A2A9A439A80ED97E028EC30E0F90179
:100120003197F1F70197D9F7289829982A98439899
:10013000789484E493E090931401809313012091C8
:10014000130130911401C901880F991F820F931F69
:10015000909316018093150180910C0190910D01EF
:100160000197D1F79091100180910101981719F42E
:100170002A9A2898F1CF9091100180910201981746
:1001800011F42A9807C090911001809103019817EB
:1001900019F72A9A289AE0CF1F920F920FB60F9262
:1001A00011242F933F938F939F9380910A0188236B
:1001B00089F41092B20081E080930A0180E8809374
:1001C0000B0180B78E7F80BF10920D0110920C0141
:1001D00029989CC000B600FC0DC010920E018091C1
:1001E0000E019091B200982B90930E0180B7816020
:1001F00080BF8CC010920F0180910F019091B200CE
:10020000982B90930F0180910F0190910F018A30EC
:1002100030F0923120F480910B0180643BC08091DA
:100220000F0190910F01863130F09E3120F48091C2
:100230000B0180622FC080910F0190910F018332DA
:1002400030F09B3220F480910B01806123C08091BB
:100250000F0190910F018F3230F0973320F480918D
:100260000B01886017C080910F0190910F018C33B2
:1002700030F0943420F480910B0184600BC08091A5
:100280000F0190910F01883440F0903530F4809147
:100290000B01826080930B0139C080910F01909116
:1002A0000F01853568F19D3558F580910B0181600E
:1002B00080930B0181E090E090930D0180930C01FD
:1002C000109210019091100180910B01892B809365
:1002D0001001299A109212011092110180911101BE
:1002E000909112012091840030918500822B932BF4
:1002F0009093120180931101109285001092840056
:1003000010920A011092B20010920B019F918F91EE
:100310003F912F910F900FBE0F901F9018951F9235
:100320000F920FB60F92112410920A0110920B0136
:1003300029980F900FBE0F901F9018951F920F9243
:100340000FB60F9211242F933F934F935F936F93A8
:100350007F938F939F93EF93FF93809104019091EC
:10036000050108970CF040C08091060190910701AB
:10037000892BA1F540910001809104019091050124
:10038000E0910401F091050127E030E0B901681B1C
:10039000790B81E090E002C0880F991F6A95E2F71F
:1003A00050E0842395232E1B3F0B02C09595879523
:1003B0002A95E2F790930901809308018091080142
:1003C00090910901019711F4439A01C0439881E08B
:1003D00090E090930701809306011AC010920701E4
:1003E0001092060143980BC0809104019091050181
:1003F00088972CF0109205011092040109C0809199
:1004000004019091050101969093050180930401E8
:10041000FF91EF919F918F917F916F915F914F919C
:100420003F912F910F900FBE0F901F901895F89449
:02043000FFCFFC
:0404320093AB93C92C
:00000001FF
