:100000000C9434000C9451000C9451000C94510049
:100010000C9451000C9451000C9451000C9451001C
:100020000C9451000C9451000C9451000C9451000C
:100030000C9451000C9451000C9451000C945100FC
:100040000C9451000C9451000C9451000C945100EC
:100050000C9451000C9451000C9451000C945300DA
:100060000C9451000C94510011241FBECFEFD8E026
:10007000DEBFCDBF11E0A0E0B1E0EEEFF2E002C0E4
:1000800005900D92A430B107D9F711E0A4E0B1E0DA
:1000900001C01D92A930B107E1F70E9423010C9421
:1000A0007D010C9400001F920F920FB60F92112445
:1000B0002F933F934F935F936F937F938F939F9370
:1000C000AF93BF93EF93FF93299880EF8A95F1F751
:1000D00067E070E041E050E0ECE7F1E030EF42C073
:1000E00000B605FE14C02091040180910501909195
:1000F0000601DB01A81BB90BCD01DA0102C0AA0F72
:10010000BB1F8A95E2F72A2B2093040115C020918A
:1001100004018091050190910601DB01A81BB90B38
:10012000CD01DA0102C0AA0FBB1F8A95E2F7CD010B
:1001300080958223809304018091050190910601AE
:10014000019690930601809305018091050190919D
:100150000601089721F4832F8A95F1F703C0CF0198
:100160000197F1F7809105019091060108970CF431
:10017000B7CF10920601109205012A9A80910401CE
:100180008E6790E0909308018093070180910701AA
:10019000909108018F3F910579F49091040180912D
:1001A0000101981711F4299A07C0909104018091D8
:1001B0000201981709F4289A109208011092070179
:1001C00080E29EE40197F1F785B1887F85B9FF91C0
:1001D000EF91BF91AF919F918F917F916F915F91BF
:1001E0004F913F912F910F900FBE0F901F90189538
:1001F00047E050E0A1E0B0E0682F70E0E8ECF0E00C
:1002000035EFCD01042E02C0880F991F0A94E2F742
:1002100086239723042E02C0959587950A94E2F7CA
:10022000019711F4439A2A9ACF010197F1F7439865
:100230002A98832F8A95F1F7415050408FEF4F3F16
:100240005807F9F60895FF920F931F93CF93DF930A
:1002500014B815B887E084B9279A269A2E982F9853
:1002600017B818B888E087B9F89483E080937F00C6
:100270008BE080BF85B5826085BD289A299A2A9A2D
:10028000439A80ED97E028EC30E0F9013197F1F7DF
:100290000197D9F7289829982A9843987894FF24A9
:1002A000F39408EC10E0809100018823B9F08130CC
:1002B000E1F7C0E0D0E0F8948BED0E94F80078946C
:1002C00084ED93E0F8013197F1F70197D9F7219682
:1002D000C233D10581F710920001E5CF20E030E074
:1002E00086B5883C18F02F5F3F4F16BC81E6283A50
:0E02F0003807B4F3F0920001D6CFF894FFCF98
:0402FE0001DBA5007B
:00000001FF
