:100000000C9434000C9451000C9451000C94510049
:100010000C9451000C9451000C9451000C9451001C
:100020000C9451000C9451000C9451000C9451000C
:100030000C9451000C9451000C9451000C945100FC
:100040000C9451000C9451000C9451000C945100EC
:100050000C9451000C9451000C9451000C945300DA
:100060000C9451000C94510011241FBECFEFD8E026
:10007000DEBFCDBF11E0A0E0B1E0E0E9F3E002C0F7
:1000800005900D92A230B107D9F711E0A2E0B1E0DE
:1000900001C01D92AD30B107E1F70E9480010C94C0
:1000A000C6010C9400001F920F920FB60F921124FC
:1000B0002F933F934F935F936F937F938F939F9370
:1000C000EF93FF9316BC289A29981092040110927E
:1000D00003010AC000B605FC07C086B590E0909306
:1000E00006018093050103C086B5843698F380919C
:1000F0000501909106012091050130910601873498
:1001000091050CF487C0203531050CF083C02A9886
:1001100055E867E070E027C0852F8A95F1F7409198
:10012000070180B7209108013091090190E08072A9
:100130009070F5E095958795FA95E1F7FB01E21B44
:10014000F30B0E2E02C0880F991F0A94E2F7482B7A
:1001500040930701809108019091090101969093C5
:100160000901809308018091080190910901089785
:100170009CF228C0852F8A95F1F740910A0180B73B
:10018000209108013091090190E080729070E5E0C3
:1001900095958795EA95E1F7FB01E21BF30B0E2E8F
:1001A00002C0880F991F0A94E2F7482B40930A0176
:1001B0008091080190910901019690930901809323
:1001C000080103C055E860E170E08091080190915A
:1001D000090140977CF29091070180910A019817DC
:1001E000C9F4299A9091070180910B01981791F415
:1001F00081E090E0909304018093030180910C01D1
:1002000010920C0190910C0180910701892B809331
:100210000C01289A1092070110920A01109209010C
:1002200010920801FF91EF919F918F917F916F91B3
:100230005F914F913F912F910F900FBE0F901F90A4
:100240001895982F16BC439A2A9A86B58F3B60F072
:10025000109285001092840047E050E0692F70E012
:10026000E1E0F0E030E706C086B58E3770F34398E2
:100270002A98EBCFCF01042E02C0880F991F0A9451
:10028000E2F786239723042E02C0959587950A945A
:10029000E2F7019719F4439A2A9A02C043982A98E0
:1002A000832F8A95F1F7415050408FEF4F3F580709
:1002B00009F747E050E0E1E0F0E030E7CF01042E3D
:1002C00002C0880F991F0A94E2F786239723042E11
:1002D00002C0959587950A94E2F7019719F4439A1D
:1002E0002A9A02C043982A98832F8A95F1F74150A1
:1002F00050408FEF4F3F580709F743982A980895C9
:100300001F93CF93DF9314B815B887E084B9279A69
:10031000269A2E982F9817B818B888E087B9F894BD
:1003200083E080937F008BE080BF85B5826085BDD0
:100330007894289A299A2A9A439A80ED97E028EC93
:1003400030E0F9013197F1F70197D9F7289829980A
:100350002A984398C0E0D0E011E080910201882300
:1003600059F08130E1F7F894809100010E94210159
:10037000789410920201F1CF21968EE4C032D80712
:1003800064F310930201C0E0D0E0E7CFF894FFCF10
:02039000AA00C1
:00000001FF
