:100000000C9434000C9451000C9451000C94510049
:100010000C9451000C9451000C9451000C949C01D0
:100020000C9451000C9451000C9451000C9451000C
:100030000C9451000C9451000C94AC010C945100A0
:100040000C9451000C9451000C9451000C945100EC
:100050000C9451000C9451000C9451000C949A0093
:100060000C9451000C94510011241FBECFEFD8E026
:10007000DEBFCDBF11E0A0E0B1E0E6E5F4E002C0F4
:1000800005900D92A230B107D9F711E0A2E0B1E0DE
:1000900001C01D92A731B107E1F70E9453000C94F3
:1000A00029020C94000014B815B887E084B9279A87
:1000B000269A2E982F9817B818B888E087B9F89420
:1000C00083E080937F008BE080BF84B5826084BD35
:1000D00085B5826085BD84E687BD80916E008260B3
:1000E00080936E0080918100856080938100809173
:1000F000B00082608093B00082E08093700088EC52
:100100008093B3008091B10085608093B100289AFC
:10011000299A2A9A439A80ED97E028EC30E0F90179
:100120003197F1F70197D9F7289829982A98439899
:100130007894FFCF1F920F920FB60F9211242F9336
:100140003F934F935F938F939F93809108018823F0
:1001500091F41092B20081E08093080180E88093CE
:10016000090180B78E7F80BF10920B0110920A01A7
:10017000289A2998D6C000B600FC0EC010920C0137
:1001800080910C019091B200982B90930C0180B754
:10019000816080BF2898C5C0289A10920D01809177
:1001A0000D019091B200982B90930D0180910D015B
:1001B00090910D018A3030F0963120F48091090140
:1001C00080640BC080910D0190910D01863140F04B
:1001D000943230F480910901806280930901A1C0BA
:1001E00080910D0190910D01833230F09F3220F407
:1001F000809109018061F1CF80910D0190910D01F5
:100200008F3230F09C3320F4809109018860E5CF73
:1002100080910D0190910D018C3330F0983420F4D1
:10022000809109018460D9CF80910D0190910D01D9
:10023000883430F0953520F4809109018260CDCF6B
:1002400080910D0190910D01853508F46AC09536B5
:1002500008F067C08091090181608093090141E045
:1002600050E050930B0140930A0110920E019091BF
:100270000E0180910901892B80930E01299A2898FB
:1002800080910F0190911001019719F58091110152
:10029000909112012091840030918500822B932B44
:1002A000909312018093110180911101909112019C
:1002B0002091130130911401821B930B909316012E
:1002C0008093150182E090E09093100180930F01DC
:1002D00018C080910F0190911001892B91F48091A9
:1002E0001301909114012091840030918500822B9C
:1002F000932B90931401809313015093100140931A
:100300000F0180910F0190911001029721F410923A
:10031000850010928400109208011092B200109291
:1003200009019F918F915F914F913F912F910F9074
:100330000FBE0F901F9018951F920F920FB60F923D
:1003400011241092080110920901289829980F9001
:100350000FBE0F901F9018951F920F920FB60F921D
:1003600011242F933F934F935F936F937F938F93BA
:100370009F93EF93FF93809102019091030108975F
:100380000CF043C08091040190910501892BB1F5D7
:10039000409100018091020190910301E0910201DE
:1003A000F091030127E030E0B901681B790B81E08F
:1003B00090E002C0880F991F6A95E2F750E084230D
:1003C00095232E1B3F0B02C0959587952A95E2F742
:1003D0009093070180930601809106019091070197
:1003E000019719F4439A2A9A02C043982A9881E007
:1003F00090E090930501809304011CC010920501C8
:100400001092040143982A980CC0809102019091A7
:100410000301883491052CF010920301109202011F
:1004200009C080910201909103010196909303010C
:1004300080930201FF91EF919F918F917F916F9136
:100440005F914F913F912F910F900FBE0F901F9092
:060450001895F894FFCF9F
:02045600AB00F9
:00000001FF
