:100000000C9434000C9451000C9451000C94510049
:100010000C9451000C9451000C9451000C947901F3
:100020000C9451000C9451000C9451000C9451000C
:100030000C9451000C9451000C9488010C945100C4
:100040000C9451000C9451000C9451000C945100EC
:100050000C9451000C9451000C9451000C94CC0061
:100060000C9451000C94510011241FBECFEFD8E026
:10007000DEBFCDBF11E0A0E0B1E0E6E0F4E002C0F9
:1000800005900D92A230B107D9F711E0A2E0B1E0DE
:1000900001C01D92AF30B107E1F70E9453000C94EC
:1000A00001020C94000014B815B887E084B9279AAF
:1000B000269A2E982F9817B818B888E087B9F89420
:1000C00083E080937F008BE080BF84B5826084BD35
:1000D00085B5826085BD84E687BD80916E008260B3
:1000E00080936E0080918100856080938100809173
:1000F000B00082608093B00082E08093700088EC52
:100100008093B3008091B10085608093B100289AFC
:10011000299A2A9A439A80ED97E028EC30E0F90179
:100120003197F1F70197D9F7289829982A98439899
:10013000789480910A0190910B010197D1F7409139
:1001400084005091850020E030E069E0413D560791
:1001500014F421E030E080E090E0E9E0483C5E0704
:1001600014F081E090E08223932320E030E063E00C
:100170004934560714F421E030E060E070E0405468
:10018000534014F061E070E026233723822B11F0F6
:10019000289ACFCF2898CDCF1F920F920FB60F92EB
:1001A00011248F939F9380910801882389F41092E2
:1001B000B20081E08093080180E88093090180B754
:1001C0008E7F80BF10920B0110920A0129988AC07D
:1001D00000B600FC0DC010920C0180910C019091B2
:1001E000B200982B90930C0180B7816080BF7AC0D9
:1001F00010920D0180910D019091B200982B909377
:100200000D0180910D0190910D018A3030F09231F5
:1002100020F48091090180643BC080910D01909190
:100220000D01863130F09E3120F480910901806209
:100230002FC080910D0190910D01833230F09B32DF
:1002400020F480910901806123C080910D0190917B
:100250000D018F3230F0973320F4809109018860CE
:1002600017C080910D0190910D018C3330F09434C2
:1002700020F48091090184600BC080910D01909160
:100280000D01883440F0903530F48091090182608E
:100290008093090127C080910D0190910D01853552
:1002A000D8F09D35C8F480910901816080930901DF
:1002B00081E090E090930B0180930A0110920E016F
:1002C00090910E0180910901892B80930E01299A4A
:1002D0001092850010928400109208011092B200D2
:1002E000109209019F918F910F900FBE0F901F9058
:1002F00018951F920F920FB60F92112410920801B9
:100300001092090129980F900FBE0F901F90189519
:100310001F920F920FB60F9211242F933F934F937A
:100320005F936F937F938F939F93EF93FF9380914E
:1003300002019091030108970CF040C080910401E4
:1003400090910501892BA1F5409100018091020156
:1003500090910301E0910201F091030127E030E068
:10036000B901681B790B81E090E002C0880F991FEA
:100370006A95E2F750E0842395232E1B3F0B02C0C1
:10038000959587952A95E2F790930701809306014A
:100390008091060190910701019711F4439A01C0E1
:1003A000439881E090E090930501809304011AC086
:1003B000109205011092040143980BC08091020134
:1003C0009091030188972CF0109203011092020182
:1003D00009C080910201909103010196909303015D
:1003E00080930201FF91EF919F918F917F916F9187
:1003F0005F914F913F912F910F900FBE0F901F90E3
:060400001895F894FFCFEF
:02040600AB0049
:00000001FF
