:100000000C9434000C943E000C943E000C943E0082
:100010000C943E000C943E000C943E000C943E0068
:100020000C943E000C943E000C943E000C943E0058
:100030000C943E000C943E000C943E000C943E0048
:100040000C943E000C943E000C943E000C943E0038
:100050000C943E000C943E000C943E000C943E0028
:100060000C943E000C943E0011241FBECFEFD8E04C
:10007000DEBFCDBF0E9440000C945E000C940000D7
:100080003D9A20E030E0E8ECF0E060E273E048EE1A
:1000900053E0253031055CF4459ACF010197F1F723
:1000A0004598CB010197F1F72F5F3F4FF2CF45986D
:1000B000CA010197F1F720E030E0EBCFF894FFCFD1
:00000001FF
