:100000000C9434000C9446000C9446000C9446006A
:100010000C9446000C9446000C9446000C945B0033
:100020000C9446000C9446000C9446000C94460038
:100030000C9446000C9446000C9446000C94460028
:100040000C9446000C9446000C9446000C94460018
:100050000C9446000C9446000C9446000C94460008
:100060000C9446000C94460011241FBECFEFD8E03C
:10007000DEBFCDBF11E0A0E0B1E001C01D92AA300B
:10008000B107E1F70E9448000C941C010C94000099
:100090003D9A8091B00082608093B00082E08093AE
:1000A000700082E38093B3008091B10082608093FE
:1000B000B1007894FFCF1F920F920FB60F921124C8
:1000C0002F933F934F935F936F937F938F939F9360
:1000D0008091000190910101892B09F088C08091E5
:1000E000020190910301892B61F4459A1092050158
:1000F0001092040181E090E090930301809302014B
:100100008EC080910401909105010A9709F05EC0AC
:10011000809106019091070108975CF48091060197
:1001200090910701609106017091070127E030E08E
:1001300010C080910601909107014097A4F580912D
:1001400006019091070160910601709107012FE06F
:1001500030E0A901481B590B81E090E002C0880FF4
:10016000991F4A95E2F7897B9070261B370B02C0D6
:10017000959587952A95E2F7909309018093080158
:100180008091080190910901019711F4459A01C0ED
:10019000459880910601909107010196909307017F
:1001A000809306010EC0109203011092020181E0BB
:1001B00090E090930101809300011092070110924A
:1001C0000601109205011092040129C080910401DA
:1001D00090910501029709F445988091040190914E
:1001E00005010196909305018093040118C0809148
:1001F00004019091050101969093050180930401FB
:100200008091040190910501883C910541F4109280
:1002100005011092040110920101109200019F91BA
:100220008F917F916F915F914F913F912F910F909F
:0C0230000FBE0F901F901895F894FFCFA0
:00000001FF
