:100000000C9434000C9446000C9446000C9446006A
:100010000C9446000C9446000C9446000C947D0011
:100020000C9446000C9446000C9446000C94460038
:100030000C9446000C9446000C9446000C94460028
:100040000C9446000C9446000C9446000C94460018
:100050000C9446000C9446000C9446000C946100ED
:100060000C9446000C94460011241FBECFEFD8E03C
:10007000DEBFCDBF11E0A0E0B1E001C01D92A23013
:10008000B107E1F70E9448000C949F000C94000017
:1000900080E387B983E080937F008BE080BF80910D
:1000A000B00082608093B00082E08093700082E3B1
:1000B0008093B3008091B10082608093B100789406
:1000C000FFCF1F920F920FB60F9211248F9300B69D
:1000D00005FE09C080E388B9109201011092000169
:1000E00080B78E7F03C0459880B7816080BF8F91B5
:1000F0000F900FBE0F901F9018951F920F920FB682
:100100000F9211248F939F93809100019091010190
:1001100001969093010180930001809100019091DC
:1001200001010B972CF044981092010110920001EC
:100130009F918F910F900FBE0F901F901895F8947C
:02014000FFCFEF
:00000001FF
