:100000000C9434000C943E000C943E000C943E0082
:100010000C943E000C943E000C943E000C943E0068
:100020000C943E000C943E000C943E000C943E0058
:100030000C943E000C943E000C943E000C943E0048
:100040000C943E000C943E000C943E000C943E0038
:100050000C943E000C943E000C943E000C943E0028
:100060000C943E000C943E0011241FBECFEFD8E04C
:10007000DEBFCDBF0E9450000C9484000C940000A1
:10008000539A5B9A019711F44B9A08954B980895EF
:10009000549A5C9A019711F44C9A08954C980895DB
:1000A0001F93CF93DF938FEF84B915B881E090E071
:1000B0000E94400081E090E00E94480080E197E2C9
:1000C00028EC30E0F9013197F1F70197D9F780E09A
:1000D00090E00E94480080E090E011E0EC0180E0B8
:1000E00090E001962FEF8F3F9207D9F785B18127D6
:1000F00085B9CE010E944000C130D10581F381E075
:0C01000090E0209761F7EACFF894FFCF61
:00000001FF
