:100000000C9434000C943E000C943E000C943E0082
:100010000C943E000C943E000C943E000C943E0068
:100020000C943E000C943E000C943E000C943E0058
:100030000C943E000C943E000C943E000C943E0048
:100040000C943E000C943E000C943E000C943E0038
:100050000C943E000C943E000C943E000C943E0028
:100060000C943E000C943E0011241FBECFEFD8E04C
:10007000DEBFCDBF0E9440000C9465000C940000D0
:100080008CE387B914B815B887E084B9279A269A03
:100090002E982F98299A2A9A20E63AEE299A2A9A97
:1000A00080E090E0F9013197F1F701968A309105EF
:1000B000C9F729982A9880E090E0F9013197F1F783
:0E00C00001968A309105C9F7E9CFF894FFCF79
:00000001FF
