:100000000C9434000C943E000C943E000C943E0082
:100010000C943E000C943E000C943E000C943E0068
:100020000C943E000C943E000C943E000C943E0058
:100030000C943E000C943E000C943E000C943E0048
:100040000C943E000C943E000C943E000C943E0038
:100050000C943E000C943E000C943E000C943E0028
:100060000C943E000C943E0011241FBECFEFD8E04C
:10007000DEBFCDBF0E9440000C9484000C940000B1
:1000800014B815B887E084B9279A269A2E982F9825
:1000900017B818B888E087B9A5ED48EC50E060EED5
:1000A00071E0299A2E9A8A2F8A95F1F72E982F9827
:1000B000299820E030E00AC0FA013197F1F7019762
:1000C000D9F72F5F3F4F2A30310519F088EE93E0C2
:1000D000F3CF2A9A2F9ACB010197F1F78A2F8A95AD
:1000E000F1F72E982F982A9820E030E00AC0FA0104
:1000F0003197F1F70197D9F72F5F3F4F2A3031053C
:0C01000081F288EE93E0F3CFF894FFCF7B
:00000001FF
