:100000000C9434000C9451000C9451000C94510049
:100010000C9451000C9451000C9451000C94160156
:100020000C9451000C9451000C9451000C9451000C
:100030000C9451000C9451000C9425010C94510027
:100040000C9451000C9451000C9451000C945100EC
:100050000C9451000C9451000C9451000C945300DA
:100060000C9451000C94510011241FBECFEFD8E026
:10007000DEBFCDBF11E0A0E0B1E0E6E3F3E102C0F6
:1000800005900D92A031B107D9F711E0A0E1B1E0E0
:1000900001C01D92A832B107E1F70E9406020C943C
:1000A00099090C9400001F920F920FB60F92112421
:1000B0002F933F938F939F9380911601882389F408
:1000C0001092B20081E08093160180E880931701BE
:1000D00080B78E7F80BF1092190110921801299865
:1000E0009CC000B600FC0DC010921A0180911A014C
:1000F0009091B200982B90931A0180B7816080BFD5
:100100008CC010921B0180911B019091B200982B22
:1001100090931B0180911B0190911B018A3030F05C
:10012000923120F48091170180643BC080911B01C3
:1001300090911B01863130F09E3120F4809117019F
:1001400080622FC080911B0190911B01833230F09F
:100150009B3220F480911701806123C080911B01A4
:1001600090911B018F3230F0973320F4809117016A
:10017000886017C080911B0190911B018C3330F077
:10018000943420F48091170184600BC080911B018E
:1001900090911B01883440F0903530F48091170124
:1001A00082608093170139C080911B0190911B01DF
:1001B000853568F19D3558F58091170181608093F0
:1001C000170181E090E0909319018093180110923B
:1001D0001C0190911C0180911701892B80931C01B7
:1001E000299A10921E0110921D0180911D0190917B
:1001F0001E012091840030918500822B932B9093D7
:100200001E0180931D0110928500109284001092AF
:1002100016011092B200109217019F918F913F9199
:100220002F910F900FBE0F901F9018951F920F9255
:100230000FB60F92112410921601109217012998EF
:100240000F900FBE0F901F9018951F920F920FB630
:100250000F9211242F933F934F935F936F937F934C
:100260008F939F93EF93FF938091100190911101D1
:1002700008970CF040C08091120190911301892BD6
:10028000A1F5409100018091100190911101E09140
:100290001001F091110127E030E0B901681B790BE2
:1002A00081E090E002C0880F991F6A95E2F750E064
:1002B000842395232E1B3F0B02C0959587952A9585
:1002C000E2F79093150180931401809114019091AD
:1002D0001501019711F4439A01C0439881E090E021
:1002E00090931301809312011AC01092130110927F
:1002F000120143980BC080911001909111018897D1
:100300002CF0109211011092100109C0809110017F
:100310009091110101969093110180931001FF912A
:10032000EF919F918F917F916F915F914F913F914D
:100330002F910F900FBE0F901F901895AF92BF9204
:10034000CF92DF92EF92FF920F931F935B016C01AC
:10035000289A2E9A80EF90E00197F1F72E982F9827
:10036000C601B50120E030E04AEF54E40E94DE050A
:100370007B018C0120E030E040E85FE30E94380719
:1003800088231CF461E070E024C0C801B70120E0BC
:100390003FEF4FE757E40E94D8061816B4F4C601A1
:1003A000B50120E030E040E251E40E94DE050E9409
:1003B000080488EC90E005C0FC013197F1F761502A
:1003C000704061157105C1F707C0C801B7010E94EF
:1003D0000804CB010197F1F728982F9A80EF90E05D
:1003E0000197F1F72E982F981F910F91FF90EF90A2
:1003F000DF90CF90BF90AF90089528982F9A80EF0C
:1004000090E00197F1F72E982F980895FF920F939F
:100410001F9314B815B887E084B9279A269A2E98A6
:100420002F9817B818B888E087B9F89483E08093BC
:100430007F008BE080BF84B5826084BD85B582601B
:1004400085BD84E687BD80916E00826080936E00DA
:10045000809181008560809381008091B0008260EE
:100460008093B00082E08093700088EC8093B300AA
:100470008091B10085608093B100289A299A2A9AC8
:10048000439A80ED97E028EC30E0F9013197F1F7DD
:100490000197D9F7289829982A9843980E94FD0136
:1004A000289A299A2A9A80ED97E028EC30E0F90101
:1004B0003197F1F70197D9F7289829982A987894D5
:1004C0008AE080931F0183E0F82E12E001E0909112
:1004D0000001809101019817D1F780911801909146
:1004E00019010197A1F780911F018A3081F780914E
:1004F0002001833008F09AC090911C018091020184
:10050000981729F580912001882309F077C0809100
:10051000210190912201892B09F070C08091230163
:1005200090912401892B09F069C020912501309117
:10053000260180911D0190911E01822B932B909397
:1005400026018093250100932001289A6FC0909185
:100550001C0180910301981731F5809120018130B1
:1005600009F04CC08091230190912401892B09F05E
:1005700045C0809125019091260118161906F4F5C1
:10058000209121013091220180911D0190911E0145
:10059000822B932B909322018093210110932001B1
:1005A0002A9A289843C090911C01809104019817C1
:1005B000E9F580912001823009F580912501909123
:1005C000260118161906D4F4809121019091220178
:1005D000181619069CF48091230190912401209112
:1005E0001D0130911E01282B392B309324012093BB
:1005F0002301F092200185B1856017C080911D0113
:1006000090911E01853691058CF010922601109272
:1006100025011092220110922101109224011092C2
:1006200023011092200185B18A7F85B98091200134
:10063000833009F0C2C085B1887F85B9409125011A
:1006400050912601209121013091220180910501D4
:1006500090910601820F931F841795076CF54091C6
:100660002501509126012091210130912201809194
:10067000050190910601820F931F84179507E4F4FA
:100680009091270180910301892B80932701299A5A
:1006900028EC30E0F894299A84EC99E0F90131973C
:1006A000F1F70197D9F7299884EC99E0F90131978E
:1006B000F1F70197D9F7EECF409121015091220136
:1006C000209125013091260180910501909106012C
:1006D000820F931F841795076CF54091210150916B
:1006E00022012091230130912401809105019091F4
:1006F0000601820F931F84179507E4F49091270158
:1007000080910401892B809327012A9A28EC30E0FC
:10071000F8942A9A84EC99E0F9013197F1F701975E
:10072000D9F72A9884EC99E0F9013197F1F701970C
:10073000D9F7EECF4091230150912401209125015A
:10074000309126018091050190910601820F931F3F
:10075000841795076CF54091230150912401209155
:100760002501309126018091050190910601820FAB
:10077000931F84179507E4F490912701809102015B
:10078000892B80932701289A28EC30E0F894289A46
:1007900084EC99E0F9013197F1F70197D9F728989E
:1007A00084EC99E0F9013197F1F70197D9F7EECF91
:1007B000F89485B1876085B9FBCF809120018430A2
:1007C00011F590911C01809127019817E1F4F8949C
:1007D0002A9A60E070E080EA92E40E949E01109202
:1007E00026011092250110922201109221011092EF
:1007F000240110922301109220011092270185B14B
:10080000887F85B9789410921901109218015FCEF3
:10081000EF92FF920F931F937B018C0120E030E059
:1008200040E05FE40E94080788238CF0C801B7010C
:1008300020E030E040E05FE40E9480050E9468070D
:100840009B01AC01205030404040504806C0C801D8
:10085000B7010E9468079B01AC01B901CA011F9151
:100860000F91FF90EF900895A0E0B0E0EAE3F4E08C
:100870000C946209DC012B01FA019C91923008F47E
:1008800039C1EB018881823008F433C1943069F4B6
:10089000843009F02FC111969C9111978981981786
:1008A00009F428C1A7E0B1E025C1843009F421C1D1
:1008B0008230A9F4923009F01DC19A01AD0188E09F
:1008C000EA010990AE01E90109929E018150C1F748
:1008D000E201898111969C918923818308C192301C
:1008E00009F407C112962D903C901397EB018A8171
:1008F0009B811496AD90BD90CD90DC901797EC80C5
:10090000FD800E811F819101281B390BB90137FF32
:1009100004C066277727621B730B603271050CF0E9
:1009200061C0121613066CF537014801062E04C08B
:1009300096948794779467940A94D2F721E030E0F4
:1009400040E050E004C0220F331F441F551F6A953A
:10095000D2F721503040404050402E213F214023CB
:100960005123211531054105510521F021E030E0E9
:1009700040E050E079018A01E628F7280829192982
:100980003CC0232BD1F1260E371E35014601062E21
:1009900004C096948794779467940A94D2F721E0E0
:1009A00030E040E050E004C0220F331F441F551FC9
:1009B0006A95D2F721503040404050402A213B21D7
:1009C0004C215D21211531054105510521F021E022
:1009D00030E040E050E059016A01A628B728C82855
:1009E000D9280BC0821593052CF01C01AA24BB2426
:1009F000650103C0EE24FF24870111969C91D2016A
:100A000011968C91981709F445C0992339F0A801E3
:100A100097012A193B094C095D0906C0A6019501F9
:100A20002E193F09400B510B57FD08C0118233822C
:100A3000228224833583468357831DC081E08183CE
:100A40003382228288279927DC01821B930BA40B17
:100A5000B50B84839583A683B7830DC0220F331F04
:100A6000441F551F24833583468357838281938196
:100A70000197938382832481358146815781DA01EE
:100A8000C9010197A109B1098F5F9F4FAF4FBF43C4
:100A900028F30BC0918333822282EA0CFB1C0C1DCD
:100AA0001D1DE482F5820683178383E08083248101
:100AB00035814681578157FF1AC0C901AA2797FD82
:100AC000A095BA2F81709070A070B0705695479520
:100AD00037952795822B932BA42BB52B8483958355
:100AE000A683B78382819381019693838283DF01FA
:100AF00001C0D201CD01CDB7DEB7E2E10C947E0991
:100B0000A0E2B0E0E6E8F5E00C946E0969837A8330
:100B10008B839C832D833E834F835887E9E0EE2EA1
:100B2000F12CEC0EFD1ECE010196B7010E9491083A
:100B30008E010F5E1F4FCE010596B8010E949108ED
:100B40008A8991E089278A8BC701B801AE01475E87
:100B50005F4F0E9434040E94BC07A096E6E00C940C
:100B60008A09A0E2B0E0E7EBF5E00C946E09698336
:100B70007A838B839C832D833E834F835887F9E050
:100B8000EF2EF12CEC0EFD1ECE010196B7010E9456
:100B900091088E010F5E1F4FCE010596B8010E948D
:100BA0009108C701B801AE01475E5F4F0E9434044F
:100BB0000E94BC07A096E6E00C948A09A0E2B0E08F
:100BC000E4EEF5E00C94620969837A838B839C835D
:100BD0002D833E834F835887CE010196BE01675F08
:100BE0007F4F0E949108CE010596BE016F5E7F4F38
:100BF0000E9491089985923088F089898230C8F0E6
:100C0000943019F4823051F404C0843029F49230C5
:100C100081F487E091E0C6C0923049F420E09A85E3
:100C20008A89981321E02A87CE010996BBC08230B9
:100C300049F420E09A858A89981321E02A8BCE0115
:100C40004196B0C02D843E844F8458886D887E883C
:100C50008F88988CEE24FF248701AA24BB24650189
:100C600040E050E060E070E0E0E0F0E0C101817061
:100C70009070892BE9F0E60CF71C081D191D9A01EC
:100C8000AB012A0D3B1D4C1D5D1D80E090E0A0E0F6
:100C9000B0E0E614F7040805190520F481E090E0BF
:100CA000A0E0B0E0BA01A901480F591F6A1F7B1FDD
:100CB000AA0CBB1CCC1CDD1C97FE08C081E090E098
:100CC000A0E0B0E0A82AB92ACA2ADB2A3196E0328D
:100CD000F10549F0660C771C881C991C56944794C2
:100CE00037942794C3CFFA85EA892B893C898B8571
:100CF0009C85280F391F2E5F3F4F17C0CA01817096
:100D00009070892B61F016950795F794E79480E031
:100D100090E0A0E0B0E8E82AF92A0A2B1B2B769590
:100D20006795579547952F5F3F4F77FDE7CF0CC0ED
:100D3000440F551F661F771F17FD4160EE0CFF1C07
:100D4000001F111F21503040403090E0590790E0C3
:100D5000690790E4790760F32B8F3C8FDB01CA01B0
:100D60008F779070A070B07080349105A105B105A7
:100D700061F447FD0AC0E114F1040105110529F0F1
:100D8000405C5F4F6F4F7F4F40781A8EFE1711F017
:100D900081E08A8F4D8F5E8F6F8F78A383E0898F7C
:100DA000CE0149960E94BC07A096E2E10C947E0910
:100DB000A8E1B0E0EEEDF6E00C946E0969837A8369
:100DC0008B839C832D833E834F83588789E0E82E55
:100DD000F12CEC0EFD1ECE010196B7010E94910888
:100DE0008E010F5E1F4FCE010596B8010E9491083B
:100DF0008985823040F08989823028F0C701B801A6
:100E00000E94090901C08FEF6896E6E00C948A09F8
:100E1000A8E1B0E0EEE0F7E00C946E0969837A8314
:100E20008B839C832D833E834F83588789E0E82EF4
:100E3000F12CEC0EFD1ECE010196B7010E94910827
:100E40008E010F5E1F4FCE010596B8010E949108DA
:100E50008985823040F08989823028F0C701B80145
:100E60000E94090901C08FEF6896E6E00C948A0998
:100E7000A8E1B0E0EEE3F7E00C946E0969837A83B1
:100E80008B839C832D833E834F83588789E0E82E94
:100E9000F12CEC0EFD1ECE010196B7010E949108C7
:100EA0008E010F5E1F4FCE010596B8010E9491087A
:100EB0008985823040F08989823028F0C701B801E5
:100EC0000E94090901C081E06896E6E00C948A0955
:100ED000ACE0B0E0EEE6F7E00C94720969837A8347
:100EE0008B839C83CE010196BE016B5F7F4F0E9476
:100EF00091088D81823061F1823050F1843021F48B
:100F00008E81882351F12EC02F81388537FD20C076
:100F10006E812F3131051CF06623F9F023C08EE17C
:100F200090E0821B930B29853A854B855C8504C034
:100F300056954795379527958A95D2F76623B1F050
:100F400050954095309521953F4F4F4F5F4F0EC0C4
:100F500020E030E040E050E009C02FEF3FEF4FEFDE
:100F60005FE704C020E030E040E050E8B901CA018A
:100F70002C96E2E00C948E09DF92EF92FF920F9391
:100F80001F93FC01E480F58006811781D180808168
:100F9000823048F480E090E0A0E1B0E0E82AF92A4D
:100FA0000A2B1B2BA5C0843009F49FC0823021F48A
:100FB000EE24FF24870105C0E114F10401051105A9
:100FC00019F4E0E0F0E096C0628173819FEF62382F
:100FD00079070CF05BC022E83FEF261B370B2A3164
:100FE00031052CF020E030E040E050E02AC0B801AC
:100FF000A701022E04C076956795579547950A94E8
:10100000D2F781E090E0A0E0B0E004C0880F991F23
:10101000AA1FBB1F2A95D2F70197A109B1098E21FA
:101020009F21A023B1230097A105B10521F081E004
:1010300090E0A0E0B0E09A01AB01282B392B4A2BBD
:101040005B2BDA01C9018F779070A070B07080348B
:101050009105A105B10539F427FF09C0205C3F4F78
:101060004F4F5F4F04C0215C3F4F4F4F5F4FE0E059
:10107000F0E02030A0E03A07A0E04A07A0E45A07D9
:1010800010F0E1E0F0E079018A0127C060387105D5
:1010900064F5FB01E158FF4FD801C7018F779070CD
:1010A000A070B07080349105A105B10539F4E7FE58
:1010B0000DC080E490E0A0E0B0E004C08FE390E0D9
:1010C000A0E0B0E0E80EF91E0A1F1B1F17FF05C0C5
:1010D00016950795F794E794319687E0169507954E
:1010E000F794E7948A95D1F705C0EE24FF24870191
:1010F000EFEFF0E06E2F679566276795902F9F774B
:10110000D794DD24D7948E2F8695492F462B582FC0
:101110005D29B701CA011F910F91FF90EF90DF90F9
:101120000895FC01DB01408151812281622F6F779C
:1011300070E0221F2227221F9381892F880F822B84
:10114000282F30E0991F9927991F11969C9311978A
:1011500021153105A9F5411551056105710511F4F8
:1011600082E037C082E89FEF13969C938E9312978C
:101170009A01AB0167E0220F331F441F551F6A9588
:10118000D1F783E08C930DC0220F331F441F551FEE
:1011900012968D919C911397019713969C938E9321
:1011A0001297203080E0380780E0480780E4580735
:1011B00058F314962D933D934D935C931797089590
:1011C0002F3F310579F4411551056105710519F479
:1011D00084E08C93089564FF03C081E08C9312C077
:1011E0001C9210C02F57304013963C932E931297A9
:1011F00083E08C9387E0440F551F661F771F8A9505
:10120000D1F7706414964D935D936D937C9317970B
:1012100008951F93DC01FB019C91923008F447C0B4
:101220008081823008F443C0943051F411961C91AF
:10123000843099F58181682F70E0611B71093FC08E
:10124000843021F0923031F48230B9F181818823E9
:1012500089F12DC011961C9111978230F1F0818196
:101260001817D9F412962D913C911397828193818E
:101270008217930794F028173907BCF014968D91C4
:101280009D910D90BC91A02D24813581468157817F
:10129000281739074A075B0718F4112341F00AC0E1
:1012A00082179307A407B50740F4112319F061E0F2
:1012B00070E005C06FEF7FEF02C060E070E0CB012F
:1012C0001F9108952F923F924F925F926F927F925B
:1012D0008F929F92AF92BF92CF92DF92EF92FF9246
:1012E0000F931F93CF93DF93CDB7DEB7CA1BDB0BF2
:1012F0000FB6F894DEBF0FBECDBF09942A88398897
:1013000048885F846E847D848C849B84AA84B9849D
:10131000C884DF80EE80FD800C811B81AA81B981A9
:10132000CE0FD11D0FB6F894DEBF0FBECDBFED01BD
:061330000895F894FFCFC0
:10133600C9C9AB93D53200000000000000000000D0
:00000001FF
