:100000000C9434000C9451000C9451000C94510049
:100010000C9451000C9451000C9451000C94060166
:100020000C9451000C9451000C9451000C947001EC
:100030000C9451000C9451000C9451000C945100FC
:100040000C9451000C9451000C9451000C945100EC
:100050000C9451000C9451000C9451000C947E00AF
:100060000C9451000C94510011241FBECFEFD8E026
:10007000DEBFCDBF11E0A0E0B1E0E8E7F4E002C0F0
:1000800005900D92A230B107D9F711E0A2E0B1E0DE
:1000900001C01D92A631B107E1F70E9453000C94F4
:1000A0003A020C9400008CE387B983E080937F00D0
:1000B0008BE080BF8091810088608093810022E086
:1000C00020936F0082E390E09093890080938800F2
:1000D000809181008260809381008091B000826075
:1000E0008093B0002093700082E38093B3008091EE
:1000F000B10082608093B1007894FFCF1F920F927D
:100100000FB60F9211242F933F934F938F939F938A
:1001100000B605FE6EC010920F0110920E0180B75E
:100120008E7F80BF80910C0190910D01892B41F44D
:10013000459A81E090E090930D0180930C015CC0A2
:10014000449A80911001909111010897ACF440916C
:100150001201809110019091110127E030E0281BDD
:10016000390B81E090E002C0880F991F2A95E2F7D1
:10017000482B409312011AC08091100190911101F7
:100180004097F4F440911301809110019091110176
:100190002FE030E0281B390B81E090E002C0880F8F
:1001A000991F2A95E2F7482B409313018091100183
:1001B00090911101019690931101809310011CC040
:1001C000109211011092100110920D0110920C0169
:1001D00045989091120180911301981729F4429A41
:1001E0001092150110921401109212011092130135
:1001F00003C080B7816080BF9F918F914F913F91E5
:100200002F910F900FBE0F901F9018951F920F9275
:100210000FB60F9211248F939F9380910C019091B0
:100220000D01019709F03EC080910E0190910F01E0
:10023000019690930F0180930E0180910E01909191
:100240000F010D977CF1449880911001909111015C
:10025000409754F480911001909111010196909370
:1002600011018093100118C0109211011092100119
:1002700010920D0110920C014598909112018091FD
:100280001301981729F4429A109215011092140143
:10029000109212011092130182E090E090930F01EE
:1002A00080930E0180910C0190910D01892B89F4AE
:1002B00080911401909115010196909315018093FE
:1002C000140180911401909115018436910509F46F
:1002D00042989F918F910F900FBE0F901F9018958D
:1002E0001F920F920FB60F9211242F933F934F93AB
:1002F0005F936F937F938F939F93EF93FF9380917F
:10030000020190910301892B09F08DC080910401B5
:1003100090910501892B61F4439A10920701109284
:10032000060181E090E0909305018093040193C061
:1003300080910601909107010A9709F063C08091AE
:1003400008019091090108976CF440910001809197
:10035000080190910901E0910801F091090127E05D
:1003600030E012C080910801909109014097BCF5DE
:10037000409100018091080190910901E0910801EC
:10038000F09109012FE030E0B901681B790B81E0A1
:1003900090E002C0880F991F6A95E2F750E084232D
:1003A00095232E1B3F0B02C0959587952A95E2F762
:1003B00090930B0180930A0180910A0190910B01A7
:1003C000019711F4439A01C04398809108019091DC
:1003D0000901019690930901809308010EC01092C3
:1003E00005011092040181E090E090930301809355
:1003F0000201109209011092080110920701109257
:10040000060129C08091060190910701029709F425
:1004100043988091060190910701019690930701FE
:100420008093060118C08091060190910701019602
:100430009093070180930601809106019091070136
:10044000883C910541F41092070110920601109228
:10045000030110920201FF91EF919F918F917F9183
:100460006F915F914F913F912F910F900FBE0F9021
:080470001F901895F894FFCFCE
:0204780066001C
:00000001FF
