:100000000C9434000C943E000C943E000C943E0082
:100010000C943E000C943E000C943E000C943E0068
:100020000C943E000C943E000C943E000C943E0058
:100030000C943E000C943E000C943E000C943E0048
:100040000C943E000C943E000C943E000C943E0038
:100050000C943E000C943E000C943E000C943E0028
:100060000C943E000C943E0011241FBECFEFD8E04C
:10007000DEBFCDBF0E9466000C94AF010C9400005F
:100080001F93299884ED0E9485008FE00E94AB00A9
:100090000E94AB0185ED0E9485000E94C700182FC9
:1000A0000E94AB01183611F4289A01C02A9A80EDFB
:1000B00097E028EC30E0F9013197F1F70197D9F793
:1000C000299A1F9108950E948100089514B815B8C7
:1000D00087E084B9279A269A2E982F980E9481004B
:1000E000289A299A2A9A80ED97E028EC30E0F901C5
:1000F0003197F1F70197D9F728982A980E94400084
:10010000FDCF80E28093B8000895982F1092BC0034
:1001100084EA8093BC008091BC0087FFFCCF809173
:10012000B900887F883011F081E008959093BB007A
:1001300084E88093BC008091BC0087FFFCCF909145
:10014000B900987F983111F480E0089580E09034F0
:1001500009F081E008958093BB0084E88093BC009F
:100160008091BC0087FFFCCF8091B90090E0887F30
:10017000883209F091E0892F089584EC8093BC00C7
:100180008091BC0087FFFCCF8091BB00089584E87C
:100190008093BC008091BC0087FFFCCF8091BB00A6
:1001A0000895EF92FF920F931F93CF93DF937B01FC
:1001B0008A010E9485008823A1F4C0E0D0E009C034
:1001C000F701EC0FFD1F80810E94AB00882349F4EA
:1001D0002196C017D107A0F384E98093BC0080E08A
:1001E00001C081E0DF91CF911F910F91FF90EF90BF
:1001F00008950F931F93CF93DF93EB018A018160E2
:100200000E948500882311F081E029C020E030E0C1
:10021000A8014150504094EC0EC09093BC008091D6
:10022000BC0087FFFCCF8091BB00FE01E20FF31FF3
:1002300080832F5F3F4F2417350778F384E880933E
:10024000BC008091BC0087FFFCCF8091BB00C00F39
:10025000D11F2197888384E98093BC0080E0DF91DF
:10026000CF911F910F910895CF92DF92EF92FF925D
:100270001F93CF93DF93162F6A0179010E948500A7
:100280008823B9F4812F0E94AB00C0E0D0E009C000
:10029000F601EC0FFD1F80810E94AB00882349F41A
:1002A0002196CE15DF05A0F384E98093BC0080E0A1
:1002B00001C081E0DF91CF911F91FF90EF90DF901F
:1002C000CF900895EF92FF920F931F93CF93DF93F8
:1002D000182F062FEA0179010E948500882399F5DD
:1002E000802F0E94AB00812F81600E9485008823AF
:1002F00051F520E030E0A7014150504094EC0EC091
:100300009093BC008091BC0087FFFCCF8091BB0024
:10031000FE01E20FF31F80832F5F3F4F2417350745
:1003200078F384E88093BC008091BC0087FFFCCF09
:100330008091BB00CE0DDF1D2197888384E98093D7
:10034000BC0080E001C081E0DF91CF911F910F914F
:10035000FF90EF90089584E98093BC000895F8948D
:02036000FFCFCD
:00000001FF
