:100000000C9434000C9449000C9449000C94490061
:100010000C9449000C9449000C9449000C9449003C
:100020000C9449000C9449000C9449000C9449002C
:100030000C9449000C9449000C9449000C9449001C
:100040000C9449000C9449000C9449000C9449000C
:100050000C9449000C9449000C9449000C944900FC
:100060000C9449000C94490011241FBECFEFD8E036
:10007000DEBFCDBF12E0A0E0B1E0E8E5F1E102C0F3
:1000800005900D92A830B107D9F70E946B000C942F
:10009000AA080C940000089584ED0E942A01823081
:1000A00009F42A9A8FE00E944D01813009F4299ABF
:1000B00085ED0E942A010E9469010E944D0280ED97
:1000C00097E028EC30E0F9013197F1F70197D9F783
:1000D00029982A9808958F929F92AF92BF92CF92BB
:1000E000DF92EF92FF920F931F93CF93DF93F894D9
:1000F00014B815B887E084B9279A269A2E982F98B5
:1001000017B818B8449A459A289A299A2A9A80EDDD
:1001100097E028EC30E0F9013197F1F70197D9F732
:10012000289829982A980E942601289A789410E005
:10013000C8ECD0E087C0812F880F0E942A01882355
:1001400009F076C0612F70E080E090E00E94050623
:100150005B016C0120E030E04AEF54E40E94270488
:100160007B018C010E9451024B01C8ECD0E02A9A1D
:10017000C801B70120E030E040E85FE30E9481055C
:1001800087FD20C0C801B70120E03FEF4FE757E4EB
:100190000E942105181614F0940116C0C601B5017D
:1001A00020E030E040E251E40E9427040E94510226
:1001B00005C0CE010197F1F76150704061157105DE
:1001C000C1F705C021E030E0C9010197F1F72A9895
:1001D000C801B70120E030E040E85FE30E948105FC
:1001E00087FD20C0C801B70120E03FEF4FE757E48B
:1001F0000E942105181614F0940116C0C601B5011D
:1002000020E030E040E251E40E9427040E945102C5
:1002100005C0CE010197F1F761507040611571057D
:10022000C1F7A5CF21E030E0C9010197F1F79FCFD9
:100230000E944D0288EE93E0FE013197F1F701979D
:10024000D9F71F5F17FF77CF10E075CF80E280935B
:10025000B8000895982F84EA8093BC008091BC0078
:1002600087FFFCCF8091B900887F883011F081E052
:1002700008959093BB0084E88093BC008091BC00FB
:1002800087FFFCCF8091B900887F883121F08034CE
:1002900011F082E0089580E008958093BB0084E827
:1002A0008093BC008091BC0087FFFCCF8091B90097
:1002B00090E0887F883209F091E0892F089584ECDE
:1002C0008093BC008091BC0087FFFCCF8091BB0075
:1002D000089584E88093BC008091BC0087FFFCCF28
:1002E0008091BB000895EF92FF920F931F93CF93DD
:1002F000DF937B018A010E942A018823A1F4C0E0D8
:10030000D0E009C0F701EC0FFD1F80810E944D0174
:10031000882349F42196C017D107A4F384E9809378
:10032000BC0080E001C081E0DF91CF911F910F916F
:10033000FF90EF9008950F931F93CF93DF93EB01FE
:100340008A0181600E942A01882311F081E029C07E
:1003500020E030E0A8014150504094EC0EC0909352
:10036000BC008091BC0087FFFCCF8091BB00FE01E8
:10037000E20FF31F80832F5F3F4F241735077CF375
:1003800084E88093BC008091BC0087FFFCCF809103
:10039000BB00C00FD11F2197888384E98093BC00E4
:1003A00080E0DF91CF911F910F910895CF92DF925E
:1003B000EF92FF921F93CF93DF93162F6A0179017B
:1003C0000E942A018823B9F4812F0E944D01C0E0C8
:1003D000D0E009C0F601EC0FFD1F80810E944D01A5
:1003E000882349F42196CE15DF05A4F384E9809390
:1003F000BC0080E001C081E0DF91CF911F91FF90B0
:10040000EF90DF90CF900895EF92FF920F931F939C
:10041000CF93DF93182F062FEA0179010E942A015A
:10042000882399F5802F0E944D01812F81600E94C1
:100430002A01882351F520E030E0A70141505040C7
:1004400094EC0EC09093BC008091BC0087FFFCCF61
:100450008091BB00FE01E20FF31F80832F5F3F4FAF
:10046000241735077CF384E88093BC008091BC009E
:1004700087FFFCCF8091BB00CE0DDF1D21978883C5
:1004800084E98093BC0080E001C081E0DF91CF91DE
:100490001F910F91FF90EF90089584E98093BC0025
:1004A0000895EF92FF920F931F937B018C0120E040
:1004B00030E040E05FE40E94510588238CF0C801E1
:1004C000B70120E030E040E05FE40E94C9030E94F1
:1004D000B1059B01AC01205030404040504806C05F
:1004E000C801B7010E94B1059B01AC01B901CA0165
:1004F0001F910F91FF90EF900895A0E0B0E0E3E826
:10050000F2E00C947308DC012B01FA019C9192300B
:1005100008F439C1EB018881823008F433C194308A
:1005200069F4843009F02FC111969C91119789814B
:10053000981709F428C1A0E0B1E025C1843009F47E
:1005400021C18230A9F4923009F01DC19A01AD0198
:1005500088E0EA010990AE01E90109929E0181500B
:10056000C1F7E201898111969C918923818308C199
:10057000923009F407C112962D903C901397EB012D
:100580008A819B811496AD90BD90CD90DC90179799
:10059000EC80FD800E811F819101281B390BB90170
:1005A00037FF04C066277727621B730B6032710523
:1005B0000CF061C0121613066CF537014801062EC7
:1005C00004C096948794779467940A94D2F721E0B4
:1005D00030E040E050E004C0220F331F441F551F9D
:1005E0006A95D2F721503040404050402E213F21A3
:1005F00040235123211531054105510521F021E00A
:1006000030E040E050E079018A01E628F728082927
:1006100019293CC0232BD1F1260E371E3501460186
:10062000062E04C096948794779467940A94D2F720
:1006300021E030E040E050E004C0220F331F441FAF
:10064000551F6A95D2F721503040404050402A2132
:100650003B214C215D21211531054105510521F03A
:1006600021E030E040E050E059016A01A628B728B7
:10067000C828D9280BC0821593052CF01C01AA2488
:10068000BB24650103C0EE24FF24870111969C91D1
:10069000D20111968C91981709F445C0992339F02D
:1006A000A80197012A193B094C095D0906C0A6015A
:1006B00095012E193F09400B510B57FD08C01182BF
:1006C0003382228224833583468357831DC081E091
:1006D00081833382228288279927DC01821B930B36
:1006E000A40BB50B84839583A683B7830DC0220F1B
:1006F000331F441F551F24833583468357838281CC
:100700009381019793838283248135814681578128
:10071000DA01C9010197A109B1098F5F9F4FAF4F5E
:10072000BF4328F30BC0918333822282EA0CFB1C67
:100730000C1D1D1DE482F5820683178383E08083F0
:10074000248135814681578157FF1AC0C901AA27E4
:1007500097FDA095BA2F81709070A070B0705695DB
:10076000479537952795822B932BA42BB52B848304
:100770009583A683B7838281938101969383828335
:10078000DF0101C0D201CD01CDB7DEB7E2E10C94AB
:100790008F08A0E2B0E0EFECF3E00C947F086983EF
:1007A0007A838B839C832D833E834F835887E9E034
:1007B000EE2EF12CEC0EFD1ECE010196B7010E942B
:1007C000A2078E010F5E1F4FCE010596B8010E9451
:1007D000A2078A8991E089278A8BC701B801AE01F7
:1007E000475E5F4F0E947D020E94CD06A096E6E024
:1007F0000C949B08A0E2B0E0E0E0F4E00C947F08E9
:1008000069837A838B839C832D833E834F835887B0
:10081000F9E0EF2EF12CEC0EFD1ECE010196B70192
:100820000E94A2078E010F5E1F4FCE010596B801F0
:100830000E94A207C701B801AE01475E5F4F0E9448
:100840007D020E94CD06A096E6E00C949B08A0E2F3
:10085000B0E0EDE2F4E00C94730869837A838B8353
:100860009C832D833E834F835887CE010196BE0122
:10087000675F7F4F0E94A207CE010596BE016F5EA3
:100880007F4F0E94A2079985923088F08989823033
:10089000C8F0943019F4823051F404C0843029F443
:1008A000923081F480E091E0C6C0923049F420E0BB
:1008B0009A858A89981321E02A87CE010996BBC0C0
:1008C000823049F420E09A858A89981321E02A8BA6
:1008D000CE014196B0C02D843E844F8458886D88E7
:1008E0007E888F88988CEE24FF248701AA24BB245D
:1008F000650140E050E060E070E0E0E0F0E0C10160
:1009000081709070892BE9F0E60CF71C081D191D09
:100910009A01AB012A0D3B1D4C1D5D1D80E090E04E
:10092000A0E0B0E0E614F7040805190520F481E022
:1009300090E0A0E0B0E0BA01A901480F591F6A1F7A
:100940007B1FAA0CBB1CCC1CDD1C97FE08C081E0E1
:1009500090E0A0E0B0E0A82AB92ACA2ADB2A3196A2
:10096000E032F10549F0660C771C881C991C5694FE
:10097000479437942794C3CFFA85EA892B893C8919
:100980008B859C85280F391F2E5F3F4F17C0CA01EA
:1009900081709070892B61F016950795F794E79414
:1009A00080E090E0A0E0B0E8E82AF92A0A2B1B2BAF
:1009B00076956795579547952F5F3F4F77FDE7CF22
:1009C0000CC0440F551F661F771F17FD4160EE0CCA
:1009D000FF1C001F111F21503040403090E059078C
:1009E00090E0690790E4790760F32B8F3C8FDB017F
:1009F000CA018F779070A070B07080349105A10506
:100A0000B10561F447FD0AC0E114F10401051105C7
:100A100029F0405C5F4F6F4F7F4F40781A8EFE1772
:100A200011F081E08A8F4D8F5E8F6F8F78A383E006
:100A3000898FCE0149960E94CD06A096E2E10C94E2
:100A40008F08A8E1B0E0E7E2F5E00C947F08698345
:100A50007A838B839C832D833E834F83588789E0E1
:100A6000E82EF12CEC0EFD1ECE010196B7010E947E
:100A7000A2078E010F5E1F4FCE010596B8010E949E
:100A8000A2078985823040F08989823028F0C70129
:100A9000B8010E941A0801C08FEF6896E6E00C9436
:100AA0009B08A8E1B0E0E7E5F5E00C947F086983D6
:100AB0007A838B839C832D833E834F83588789E081
:100AC000E82EF12CEC0EFD1ECE010196B7010E941E
:100AD000A2078E010F5E1F4FCE010596B8010E943E
:100AE000A2078985823040F08989823028F0C701C9
:100AF000B8010E941A0801C08FEF6896E6E00C94D6
:100B00009B08A8E1B0E0E7E8F5E00C947F08698372
:100B10007A838B839C832D833E834F83588789E020
:100B2000E82EF12CEC0EFD1ECE010196B7010E94BD
:100B3000A2078E010F5E1F4FCE010596B8010E94DD
:100B4000A2078985823040F08989823028F0C70168
:100B5000B8010E941A0801C081E06896E6E00C9492
:100B60009B08ACE0B0E0E7EBF5E00C948308698308
:100B70007A838B839C83CE010196BE016B5F7F4F8E
:100B80000E94A2078D81823061F1823050F1843061
:100B900021F48E81882351F12EC02F81388537FDB5
:100BA00020C06E812F3131051CF06623F9F023C07F
:100BB0008EE190E0821B930B29853A854B855C85FD
:100BC00004C056954795379527958A95D2F76623A1
:100BD000B1F050954095309521953F4F4F4F5F4F65
:100BE0000EC020E030E040E050E009C02FEF3FEFC2
:100BF0004FEF5FE704C020E030E040E050E8B9018B
:100C0000CA012C96E2E00C949F08A8E0B0E0EBE06B
:100C1000F6E00C947B087B018C0161157105810560
:100C2000910519F482E0898360C083E089838EE1B5
:100C3000C82ED12CDC82CB82ED82FE820F831887F6
:100C4000C801B7010E947E06FC013197F7FF3BC047
:100C5000222733272E1B3F0B57016801022E04C0A9
:100C6000D694C794B794A7940A94D2F740E050E082
:100C700060E070E081E090E0A0E0B0E004C0880FA8
:100C8000991FAA1FBB1F2A95D2F70197A109B10985
:100C90008E219F21A023B1230097A105B10521F04A
:100CA00041E050E060E070E04A295B296C297D2931
:100CB0004D835E836F8378878EE190E08E1B9F0B60
:100CC0009C838B8312C0309781F00E2E04C0EE0CF3
:100CD000FF1C001F111F0A94D2F7ED82FE820F83C2
:100CE0001887CE1ADF0ADC82CB821A82CE010196E7
:100CF0000E94CD062896EAE00C949708EF92FF92A6
:100D00000F931F937B018C0180E0E81680E0F806CA
:100D100081E0080780E0180788F48FEFE816F104F7
:100D20000105110531F028F088E090E0A0E0B0E086
:100D300017C080E090E0A0E0B0E012C080E0E816CC
:100D400080E0F80680E0080781E0180728F088E1D5
:100D500090E0A0E0B0E004C080E190E0A0E0B0E06E
:100D600020E230E040E050E0281B390B4A0B5B0BDF
:100D700004C016950795F794E7948A95D2F7F70182
:100D8000E85FFE4F8081281B310941095109C901E3
:100D90001F910F91FF90EF900895DF92EF92FF92D5
:100DA0000F931F93FC01E480F58006811781D180A9
:100DB0008081823048F480E090E0A0E1B0E0E82A51
:100DC000F92A0A2B1B2BA5C0843009F49FC082305E
:100DD00021F4EE24FF24870105C0E114F10401058C
:100DE000110519F4E0E0F0E096C0628173819FEF95
:100DF000623879070CF05BC022E83FEF261B370B07
:100E00002A3131052CF020E030E040E050E02AC0EB
:100E1000B801A701022E04C07695679557954795AE
:100E20000A94D2F781E090E0A0E0B0E004C0880F1F
:100E3000991FAA1FBB1F2A95D2F70197A109B109D3
:100E40008E219F21A023B1230097A105B10521F098
:100E500081E090E0A0E0B0E09A01AB01282B392BB3
:100E60004A2B5B2BDA01C9018F779070A070B070AC
:100E700080349105A105B10539F427FF09C0205C34
:100E80003F4F4F4F5F4F04C0215C3F4F4F4F5F4F6D
:100E9000E0E0F0E02030A0E03A07A0E04A07A0E45C
:100EA0005A0710F0E1E0F0E079018A0127C06038CC
:100EB000710564F5FB01E158FF4FD801C7018F7739
:100EC0009070A070B07080349105A105B10539F41F
:100ED000E7FE0DC080E490E0A0E0B0E004C08FE346
:100EE00090E0A0E0B0E0E80EF91E0A1F1B1F17FFFC
:100EF00005C016950795F794E794319687E0169507
:100F00000795F794E7948A95D1F705C0EE24FF245E
:100F10008701EFEFF0E06E2F679566276795902FBA
:100F20009F77D794DD24D7948E2F8695492F462B13
:100F3000582F5D29B701CA011F910F91FF90EF90C3
:100F4000DF900895FC01DB01408151812281622FF5
:100F50006F7770E0221F2227221F9381892F880F2D
:100F6000822B282F30E0991F9927991F11969C9367
:100F7000119721153105A9F5411551056105710537
:100F800011F482E037C082E89FEF13969C938E9312
:100F900012979A01AB0167E0220F331F441F551FC0
:100FA0006A95D1F783E08C930DC0220F331F441F45
:100FB000551F12968D919C911397019713969C93B0
:100FC0008E931297203080E0380780E0480780E455
:100FD000580758F314962D933D934D935C931797B0
:100FE00008952F3F310579F44115510561057105CB
:100FF00019F484E08C93089564FF03C081E08C931E
:1010000012C01C9210C02F57304013963C932E9361
:10101000129783E08C9387E0440F551F661F771F5C
:101020008A95D1F7706414964D935D936D937C937C
:10103000179708951F93DC01FB019C91923008F4EF
:1010400047C08081823008F443C0943051F4119637
:101050001C91843099F58181682F70E0611B7109C2
:101060003FC0843021F0923031F48230B9F1818177
:10107000882389F12DC011961C9111978230F1F0CF
:1010800081811817D9F412962D913C911397828182
:1010900093818217930794F028173907BCF01496B0
:1010A0008D919D910D90BC91A02D2481358146811B
:1010B0005781281739074A075B0718F4112341F0B5
:1010C0000AC082179307A407B50740F4112319F04B
:1010D00061E070E005C06FEF7FEF02C060E070E09C
:1010E000CB011F9108952F923F924F925F926F9282
:1010F0007F928F929F92AF92BF92CF92DF92EF92A8
:10110000FF920F931F93CF93DF93CDB7DEB7CA1B28
:10111000DB0B0FB6F894DEBF0FBECDBF09942A8853
:10112000398848885F846E847D848C849B84AA84FB
:10113000B984C884DF80EE80FD800C811B81AA8188
:10114000B981CE0FD11D0FB6F894DEBF0FBECDBF53
:08115000ED010895F894FFCFB2
:101158000000000000000000000102020303030376
:10116800040404040404040405050505050505052F
:10117800050505050505050506060606060606060F
:1011880006060606060606060606060606060606F7
:1011980006060606060606060707070707070707DF
:1011A80007070707070707070707070707070707C7
:1011B80007070707070707070707070707070707B7
:1011C80007070707070707070707070707070707A7
:1011D800070707070707070708080808080808088F
:1011E8000808080808080808080808080808080877
:1011F8000808080808080808080808080808080867
:101208000808080808080808080808080808080856
:101218000808080808080808080808080808080846
:101228000808080808080808080808080808080836
:101238000808080808080808080808080808080826
:101248000808080808080808080808080808080816
:0812580008080808080808084E
:00000001FF
